:10000000FFC0189509941895189518951895189586
:10001000189518951895202B2D2A2F5E2122232420
:100020003E7E3D7E3C7E3031323334353637383992
:100030002E7E29287E454142434445464748494A49
:100040004B4C4D4E4F505152535455565758595A88
:100050002020202020206162636465666768696AE9
:100060006B6C6D6E6F707172737475767778797A68
:1000700020203F2C3B3A6F20272040783A203C201C
:1000800020207520763E2559205B265F272E5D2097
:100090002020202020200D0A3E3D3C3D3C3E504982
:1000A000452D3D20FFB6B19B07C0B29B02C0B39B5C
:1000B00086C0E2E5FFBE1895B39B4EC012FF42C05A
:1000C00014FF33C015FF1BC028BBBF9A00E1E1E756
:1000D000FFBE189528BBFFB6B19934C0E1E7FFBE5B
:1000E0001895FFB6B1992EC0E694D79422E02795D3
:1000F0000A9511F4106826C0EAE6FFBE1895E82CB0
:10010000DD2403C0FFB6B19920C0E8E8FFBE189512
:10011000FFB6B1991AC0E694D794B79BE82810F4BB
:10012000106813C0E2E8FFBE189513FF0EC0012F40
:10013000000F012B0078016008BBBF9AE1EAFFBE07
:100140001895FFB6BF98C798177EB199B2CFEAEA63
:10015000FFBE1895FFB6F9CF00E2E6EBFFBE18959B
:10016000FFB6B199F2CFE6EBFFBE1895FFB6B19995
:10017000ECCF0695B79B006218F0E0EBFFBE189538
:10018000053011F414E0E1CF063011F414EADDCFAC
:10019000083019F418601F7ED8CF023119F41061AD
:1001A000177FD3CF003011F00F3011F41127CDCFCE
:1001B0000C3041F618641F7E05E00EBDC6CF03E08B
:1001C000E3EEFFBE1895FFB60A95D1F706B3087F98
:1001D000083011F412606DCF083109F41D7F69CF2A
:1001E00050E057BB51E058BB52E051BB52BB0895A1
:1001F0005FEF58BB5EEF57BB5EE052BB51BB08954B
:10020000F8945FED5DBFECDF112750E8852EA0E686
:10021000B0E0C0E6D0E0E2E5F0E052E053BF5FE3DB
:1002200059B958E15AB95AE055BF50E85BBF7894C4
:1002300056D112FDA6D011FD01D0FBCF27D1F894E5
:10024000D7DF7CE061D160D15FD170E05DD17CE02F
:100250005BD15AD159D158D170E056D170E254D106
:1002600070E352D170E150D170E04ED17CE04CD1BE
:100270004BD14AD1CB2C5EE057BB78EF45D1B52EA0
:10028000B29442D1B52A5EEF57BB7CE03DD13CD160
:100290003BD15B2D5C1551F05E3F41F0A1DF7894BE
:1002A0005B2D0CD011FF0895F894A2DF74EE2CD1D1
:1002B0007CEE2AD195DF78941D7F08954BE4042EBF
:1002C0005F3FB9F003945B30A1F003945D3089F097
:1002D00003945F3071F003945B3159F003945E3105
:1002E00041F00394503829F018F45A5E052E09D0D5
:1002F0000895000C0F9205D00F9010F0039401D0D8
:100300000895F8945E2FE02DC895E52F7894D3D00A
:1003100070E40894BED088F17FEE0894BAD068F1FA
:10032000D5D0C9D072E40894B4D038F1702D0894B7
:10033000B0D018F1CBD0BFD071E40894AAD0E8F0C7
:100340007FEF8894A6D071FF08C011FDF9CF7FEF31
:1003500008949FD0BBD0889408957FEF089499D0DB
:10036000B5D0A9D070E4089494D038F07FE6089412
:1003700090D018F07FEE08948CD00FB6A7D00FBEA7
:10038000089576D0992415FF48C0AC2F65E0442726
:1003900012FF08955F9B09C05CB15131C9F353311D
:1003A000B9F35D93A03C08F0A05651E10A2E0C1A57
:1003B00039F010F450E6050E50E3051638F053E11D
:1003C0005D9B04C0951611F0952E5CB95EB5552362
:1003D00029F05CB55DB55523DAF24AD017FFD8CFC6
:1003E000AC17B1F25991C03C08F0C056505378F2A6
:1003F000503468F6EE1CEE1CDE2CE52EEE1C57E0A9
:10040000D52A4395423020F2662311F06A95BFCF7A
:10041000E094D09421E01F77BACFAA2412FF089568
:100420005F9B06C05CB1513111F0533109F4952E38
:10043000592D533199F317FFF1CF5A2D5F7121F4E4
:100440005DE012D05AE010D05D2D5F73505D0CD08E
:100450005D2D5E25507C5E25529556955695505DD6
:1004600003D0A3941F77DACF5D9BFECF5CB90895CC
:100470001F7B50E05EBD5AEF5DBD54E25CBD089548
:1004800059EF52BF52B757FDFDCF089552EC52BFFE
:10049000F9CF49E0771F10F48D9801C08D9AF0DFF5
:1004A0008C98859B02C0089401C08894E9DF8C9ADF
:1004B0004A9581F70895E4DF8C9AE2DF8D98E0DFBA
:1004C0008C98DEDF8D9ADCDF8C9A0895D9DF8C9AC8
:1004D000D7DF8D9AD5DF8C98D3DF8D9808958D98CE
:1004E000CFDF8C98CDDF49E0859906C0C9DF8C9AB3
:1004F000C7DF8C984A95C1F7E4DFE8DF089500C0B4
:1005000000C000C000C0089558B35727537F572735
:10051000F9DF929858BBF3DF929AF2DF5727506FBA
:100520005727939858BBEBDF939AE9DF9298E8DF5F
:1005300056B35095507F929AE2DF9398E0DF939AFA
:0205400008951C
:00000001FF
