:10000000BAC0B7C009941895189518951895189501
:10001000189518951895FFB6B19B05C032FF86C09C
:10002000EBE0FFBE1895B39B4EC012FF42C014FF19
:1000300033C015FF1BC028BBBF9A00E1E8E2FFBE3A
:10004000189528BBFFB6B19934C0E8E2FFBE1895F9
:10005000FFB6B1992EC0E694D79422E027950A9571
:1000600011F4106826C0E1E2FFBE1895E82CDD24EB
:1000700003C0FFB6B19920C0EFE3FFBE1895FFB6ED
:10008000B1991AC0E694D794B79BE82810F4106889
:1000900013C0E9E3FFBE189513FF0EC0012F000F38
:1000A000012B0078016008BBBF9AE8E5FFBE1895F8
:1000B000FFB6BF98C798177EB199B2CFE1E6FFBEF1
:1000C0001895FFB6F9CF00E2EDE6FFBE1895FFB632
:1000D000B199F2CFEDE6FFBE1895FFB6B199ECCF1E
:1000E0000695B79B006218F0E7E6FFBE189505304D
:1000F00011F414E0E1CF063011F414EADDCF08303A
:1001000019F418601F7ED8CF023119F41061177FDF
:10011000D3CF003011F00F3011F41127CDCF0C30B8
:1001200041F618641F7E05E00EBDC6CFE9E9FFBEAB
:100130001895FFB632FD74CF06B30295006FE2EA60
:10014000FFBE1895FFB632FD6BCFE8EAFFBE1895EB
:10015000FFB632FD65CFB02E06B30F60B026126039
:10016000C09AE4EBFFBE1895FFB632FD59CFFFBE33
:10017000189536B31895F8945FED5DBF51E058BB04
:1001800057BB52E052BB51BB112750E8852EA0E669
:10019000B0E0C0E6D0E0EBE0F0E052E053BF5FE358
:1001A00059B958E15AB95BE055BF50EC5BBF789440
:1001B000E9D00DD012FD3BD013D038F036F011FF4E
:1001C00002C01AD0F7CFC098F5CFC09AF3CFC6D0EF
:1001D00070E40894B1D038F17FEE0894ADD023C01C
:1001E000BDD071E40894A8D0F0F07FEF0894A4D0BB
:1001F00071FBBFD088940895B1D072E408949CD06C
:1002000090F07B2D1D7F089497D068F0B2D0A6D0D7
:1002100070E4089491D038F07FE608948DD018F0FF
:100220007FEE089489D00FB6A4D00FBE089576D083
:10023000992415FF48C0AC2F65E0442712FF0895AC
:100240005F9B09C05CB15131C9F35331B9F35D9380
:10025000A03C08F0A05651E10A2E0C1A39F010F417
:1002600050E6050E50E3051638F053E15D9B04C0DF
:10027000951611F0952E5CB95EB5552329F05CB545
:100280005DB55523DAF24AD017FFD8CFAC17B1F2DB
:100290005991C03C08F0C056505378F2503468F67B
:1002A000EE1CEE1CDE2CE52EEE1C57E0D52A439505
:1002B000423020F2662311F06A95BFCFE094D094CB
:1002C00021E01F77BACFAA2412FF08955F9B06C0D2
:1002D0005CB1513111F0533109F4952E592D533140
:1002E00099F317FFF1CF5A2D5F7121F45DE012D021
:1002F0005AE010D05D2D5F73505D0CD05D2D5E25F2
:10030000507C5E25529556955695505D03D0A3942A
:100310001F77DACF5D9BFECF5CB908951F7B50E05D
:100320005EBD5AEF5DBD54E25CBD089559EF52BF0A
:1003300052B757FDFDCF089549E0771F10F48D980F
:1003400001C08D9AF3DF8C98859B02C0089401C090
:100350008894ECDF8C9A4A9581F70895E7DF8C9AB0
:10036000E5DF8D98E3DF8C98E1DF8D9ADFDF8C9AF3
:100370000895DCDF8C9ADADF8D9AD8DF8C98D6DF8F
:100380008D9808958D98D2DF8C98D0DF49E08599BB
:1003900006C0CCDF8C9ACADF8C984A95C1F7E4DF9F
:0403A000E8DF0895F5
:00000001FF
