:10000000FFC0189509941895189518951895189586
:10001000189518951895202B2D2A2F5E2122232420
:100020003E7E3D7E3C7E3031323334353637383992
:100030002E7E29287E454142434445464748494A49
:100040004B4C4D4E4F505152535455565758595A88
:100050002020202020206162636465666768696AE9
:100060006B6C6D6E6F707172737475767778797A68
:1000700020203F2C3B3A6F20272040783A203C201C
:1000800020207520763E2559205B265F272E5D2097
:100090002020202020200D0A3E3D3C3D3C3E504982
:1000A000452D3D20FFB6B19B07C0B29B02C0B39B5C
:1000B00086C0E2E5FFBE1895B39B4EC012FF42C05A
:1000C00014FF33C015FF1BC028BBBF9A00E1E1E756
:1000D000FFBE189528BBFFB6B19934C0E1E7FFBE5B
:1000E0001895FFB6B1992EC0E694D79422E02795D3
:1000F0000A9511F4106826C0EAE6FFBE1895E82CB0
:10010000DD2403C0FFB6B19920C0E8E8FFBE189512
:10011000FFB6B1991AC0E694D794B79BE82810F4BB
:10012000106813C0E2E8FFBE189513FF0EC0012F40
:10013000000F012B0078016008BBBF9AE1EAFFBE07
:100140001895FFB6BF98C798177EB199B2CFEAEA63
:10015000FFBE1895FFB6F9CF00E2E6EBFFBE18959B
:10016000FFB6B199F2CFE6EBFFBE1895FFB6B19995
:10017000ECCF0695B79B006218F0E0EBFFBE189538
:10018000053011F414E0E1CF063011F414EADDCFAC
:10019000083019F418601F7ED8CF023119F41061AD
:1001A000177FD3CF003011F00F3011F41127CDCFCE
:1001B0000C3041F618641F7E05E00EBDC6CF03E08B
:1001C000E3EEFFBE1895FFB60A95D1F706B3087F98
:1001D000083011F412606DCF083109F41D7F69CF2A
:1001E00050E057BB51E058BB52E051BB52BB0895A1
:1001F0005FEF58BB5EEF57BB5EE052BB51BB08954B
:10020000F8945FED5DBFECDF11278827992750E850
:10021000852EE2E5F0E052E053BF5FE359B958E1C3
:100220005AB95AE055BF50E85BBF789412FD7FD0B1
:1002300011FD03D0B09BF2D0F9CFFFD0F894D8DFF6
:100240007CE04AD149D148D170E046D17CE044D12C
:1002500043D142D141D170E03FD170E23DD170E352
:100260003BD170E139D170E037D17CE035D134D168
:1002700033D1CB2C5EE057BB78EF2ED1B52EB294A4
:100280002BD1B52A5EEF57BB7CE026D125D124D1F6
:100290005B2D5C1551F05E3F41F0A2DF78945B2D41
:1002A0000CD011FF0895F894A3DF74EE15D17CEE05
:1002B00013D196DF78941D7F089599244BE4042E82
:1002C0005F3FB9F003945B30A1F003945D3089F097
:1002D00003945F3071F003945B3159F003945E3105
:1002E00041F00394503829F018F45A5E052E08D0D6
:1002F0000895000C0F9204D00F90039401D008953C
:10030000F8945E2FE02DC895E52F789411FF08959D
:100310005F9B06C05CB1513111F0533109F4952E49
:10032000592D533199F35D9BF1CF0CB808956ED0E0
:1003300097FD63C0B5D0A0D070EA089488D078F05B
:10034000792F089484D058F0782F089480D038F012
:1003500015FF3BC091D071EA089479D008F44BC0E6
:100360006BE040E84CD012FF46C017FFFBCFDD2406
:10037000EE2421E01F774A95A9F77FEF889467D094
:100380003ED012FF1EC017FFFBCFD72EEA2C5EEF28
:10039000E52ADD0CEE1CD094E094DD0CEE1CDD0CA7
:1003A000EE1CDD0CEE1C21E01F77019697FD09C0C5
:1003B0006A95B9F267FD6FEF713F99F2703F81F274
:1003C000DCCF7FEF089443D016C012FF14C017FF94
:1003D000FCCFE694D79410F41F77F7CF7D2D0894C7
:1003E00036D048F01F770196582F5F7371F74FD0C2
:1003F00027D097FFA0CF4BD063D01B7F08955EB569
:10040000552359F05CB55DB55523CAF31F7B50E009
:100410005EBD5AEF5DBD54E25CBD0895582F592B67
:1004200029F08E9A882799270BD08E98089559EF36
:1004300052BF52B757FDFDCF089552EC52BFF9CFCE
:1004400055E053BF5CE9F4DF52E053BF0895AA249E
:1004500049E0771F10F48D9801C08D9AE8DF8C98E1
:10046000859B04C051E0A526089401C08894DFDF75
:100470008C9A4A9571F70895DADF8C9AD8DF8D98B7
:10048000D6DF8C98D4DF8D9AD2DF8C9A0895CFDF97
:100490008C9ACDDF8D9ACBDF8C98C9DF8D9808952B
:1004A0008D988C988E9ACCDF49E0859906C0BFDF85
:1004B0008C9ABDDF8C984A95C1F7E4DFE8DF089598
:1004C000B6DF8D98B4DF8C98BBDF8E98089500C09E
:1004D00000C000C000C0089558B35727537F572766
:1004E000F9DF929858BBF3DF929AF2DF5727506FEB
:1004F0005727939858BBEBDF939AE9DF9298E8DF90
:1005000056B35095507F929AE2DF9398E0DF939A2A
:0205100008954C
:00000001FF
